:020000040800F2
:10000000100B0020D5000008555700089D48000837
:1000100000000000000000000000000000000000E0
:10002000000000000000000000000000D958000897
:100030000000000000000000F1570008DB58000835
:10004000E7000008E700000865580008E70000081E
:10005000E7000008E70000080B1600081516000866
:10006000E7000008E700000815100008E700000896
:10007000E7000008E7000008E7000008E7000008C4
:10008000ED590008E7000008FD59000800000000D5
:10009000E7000008E7000008E7000008E7000008A4
:1000A000E7000008E7000008E7000008E700000894
:1000B00075620008F557000800000000E70000081E
:1000C0000348854600F05AFD00480047298900088A
:1000D000100B00200448804704480047FEE7FEE775
:1000E000FEE7FEE7FEE7FEE799590008C1000008B9
:1000F00030B50B46014600202022012409E00D46C0
:10010000D5409D4205D31D469540491B2546954047
:1001100040191546521E002DF1DC30BD70B500248B
:100120002546002801DA01244042002901DA012590
:100130004942FFF7DDFFAC4200D04042002C00D026
:10014000494270BDF0B51FB40646002082B0054696
:100150004024019100901BE0019922460F46304651
:1001600000F0DBFB049A059B801A994110D31046DE
:100170001946224600F0C1FB361A8F4101972246EC
:1001800001200021009F00F0B8FB38184D4100907D
:100190002046641E0028DFDC019B00982946324679
:1001A00007B0F0BD00487047BCA5000801466139A2
:1001B000192900D82038704701464139192900D83B
:1001C0002030704703460B439B0703D009E008C962
:1001D000121F08C0042AFAD203E00B780370401CF7
:1001E000491C521EF9D27047D2B201E00270401C85
:1001F000491EFBD270470022F6E710B513460A46A7
:1002000004461946FFF7F0FF204610BD421E537802
:10021000521C002BFBD10B781370491C521C002B75
:10022000F9D1704730B505462A460B4610781C7840
:10023000521C5B1C002801D0A042F7D0002C03D038
:10024000002802D06D1CEFE7284630BD10B50446EB
:1002500005E00B780370401C002B00D0491C521E97
:10026000F7D2204610BDCAB2401E4178401C8A42D7
:1002700002D00029F9D100207047421C0178401CAF
:100280000029FBD1801A704710B5002200E0521CF3
:10029000835C8C5CA34201D1002BF8D1D8B2E1B2CF
:1002A000401A10BD0246C9B200E0401C0378002B82
:1002B000FBD102E003788B4203D0401E9042F9D27A
:1002C0000020704770B5064606F068F804680546D9
:1002D0000A220021304600F045FB2C6070BDF8B5C5
:1002E00002464A40D40F42004B0052085B089A4233
:1002F00002D20246084611464A0023D0C30D4A00E6
:10030000DDB2120EAD1A202D35DA49020126490A56
:10031000F6058A19002C00D0524220214F1B1146AD
:10032000B9402A411018C20D9A4221D0002C17D092
:10033000012D08DCDA05801AD20F8019D207DBB252
:1003400000F050FBF8BDDA05801A012340001B06BF
:10035000C01880185A428018CA0F1043490007E09D
:100360004908C2071143DA05801A8019400880182D
:1003700000F030FBF8BD61000122511A001BF7E7C5
:100380000122D2075140AAE70122D2075040A6E736
:10039000024670B54A40D30FDB0740002DD04A001B
:1003A0002AD0010E140E000212020919400A520A44
:1003B0008418E50104465443000A120A2E045043EF
:1003C000A4194219200CC543AA18120C0125AD032B
:1003D000521C521912047F39240400D0521C1043BD
:1003E00001D44000491EC2B20C06C0092018401CAE
:1003F0004008802A02D003E0002070BD4008400081
:10040000002900DA0020184370BD70B502464A404A
:10041000D50F40004A00ED0740085208002814D0CC
:10042000002A12D0C40DD30D41020120C005520292
:10043000490A520AE41A091812187D34914201D36C
:10044000641C00E04900002C01DA002070BD00238C
:10045000914201D3891A0343400849000028F7D18B
:1004600000290AD0914202D10121C90705E0914239
:1004700001D2012101E00121C943E005C018401962
:1004800000F0A8FA70BD0000F0B5074608465840D5
:1004900087B0C00F049048000E4659004008490834
:1004A000BC1A884105D2384631461E4617460B46CF
:1004B00002465800400810434CD0300D03904005D0
:1004C0005900400D490D0590401A0290402872DAFB
:1004D00018030121000B09050843019004980092BC
:1004E000002805D0019952420020884100920190D5
:1004F000029840210A1A0199009800F0FEF9054679
:100500000C466B4607CB00F019FAC0197141039AEB
:100510000E0D0023D71756401A467A40164344D092
:10052000049A002A2DD0029A012A039A15DC12059A
:10053000C01A914101263605001C7141D20F059E5B
:10054000D2070093019202962A46234600F090FAC1
:1005500007B0F0BD38463146FAE71605224A0F4685
:10056000B218C01AB74101210905001C4F410018FB
:100570007F41114618187941E20F10436D1964410B
:1005800013E0E2076D0815436408C2071443039A99
:1005900001261205C01A91413605001C7141CE0793
:1005A000400830434908C01851412A46234600F00C
:1005B00052FACDE7FFE7049801224000C117121A52
:1005C00000238B4104983146C417381AA141EEE745
:1005D00030B40124E407634030BC55E730B4012453
:1005E000E407614030BC4FE70000E0FFF0B51FB406
:1005F00088B00B990998002448400999C00F490018
:1006000049080991C0070B990090490049080B91CE
:1006100009990898A64608431CD00B990A980843E4
:1006200018D0099801244000420D4800410D099856
:1006300024050003000B204309900B980003000BD6
:1006400020430B9050181C4940180022019014467A
:10065000104605E0002001460DB0F0BD032801DA88
:10066000034600E003239C46C11A0AAE0AE05F007D
:1006700008ADED5B4F00F75B7D430027AA187C4176
:10068000491C5B1E6145F2DD410004AB5A52210456
:10069000120C0A43240C401C0828DFDB019802904E
:1006A0000099704601910090059B049A079906985D
:1006B00000F0DEF9D0E700000DFCFFFFF0B50C46BE
:1006C0005C4085B0E40FE40703944C000026640806
:1006D00059009446490802460296224321D06246B8
:1006E0000A431ED06200570D4A000E032303550D26
:1006F000012402462C492405781B1B0B360B40189D
:1007000023432643614600901C46501AB44103D34C
:100710000098401C009002E0921800985B4100286D
:1007200003DA0020014605B0F0BD002001210905D3
:100730000746864611E064461D46141BB54106D3A4
:100740006546521BB341744607430C43A646CD078A
:1007500040084908284392185B4105460D43EAD1F9
:100760001046184313D06046194650407140084364
:1007700006D06046101AB34106D20122002306E0DB
:1007800000220123DB0702E00122D243531000982C
:1007900074460105381C6141029C039D00196941A2
:1007A00000F059F9BFE70000FD03000070B54B00F1
:1007B0005B0803430BD04B005C0D002633466542BB
:1007C000B341D417AD1AA34102DB0020014670BD2E
:1007D00012053018514170BDC217C10F504010B5FD
:1007E0004018CA079623002100F0FCF810BD10B590
:1007F00000229623114600F0F5F810BD0EB5C21781
:10080000C10F5040CA0740180021054B02930192C6
:1008100000910A460B4600F02BF903B000BD000022
:10082000330400000EB505490291002100910A46EB
:100830000B46019100F01CF903B000BD3304000029
:10084000C20F410040020123400ADB05D207090E16
:10085000C0187F2901DA00207047962903DC96230F
:10086000591AC84001E096398840002AF4D0404225
:100870007047410040020122400AD205090E80184B
:100880007F2901DA00207047962903DC9622511A4D
:10089000C8407047963988407047C20FD207400061
:1008A00040080BD0C10D0723DB01C9184002090520
:1008B000400A1143C2084007114370470020014617
:1008C0007047CB0FDB07490010B5490802460A43C1
:1008D00007D00A0D07240903E401090B121B002AA3
:1008E00001DC002010BDC900440F0C43C100E0181A
:1008F000D205801800F06EF810BD10B5202A04DB78
:100900000146203A9140002010BD914020239C1ABE
:100910000346E3401943904010BD10B5202A04DB84
:100920000846203AD040002110BD0B46D340D040AD
:100930002024A21A91400843194610BD10B5202A60
:1009400006DBCB170846203A1041C1170B4306E0DF
:100950000B461341D0402024A21A91400843194667
:1009600010BD0000F7B5009C0F4600262578641CDA
:10097000002D05D0FFF716FC0068405DC007F5D1DB
:100980002B2D02D02D2D18D0641E39462046029AF8
:1009900000F006F9002F04D03968A14201D1009976
:1009A00039607105022400290BDA4042002803DD7A
:1009B00005F0F4FC0460A007FEBD012080020643A0
:1009C000E3E70028F8DA05F0E9FC04600048FEBD22
:1009D000FFFFFF7F002904DA401C490001D14008D5
:1009E0004000704770B40024050C05D110240004A9
:1009F00002D1002921D01124050E01D100020834B2
:100A0000050F01D10001241D850F01D18000A41C18
:100A1000002801DB4000641C002908D020252E1B83
:100A20000D46F540A14000D00121294308430106AD
:100A30001B1B000ADB1D02D5002070BC7047DB05C4
:100A4000181880180029F8DA401C4900F5D170BC4C
:100A500040084000704710B5002B08DA0024401C05
:100A6000614192185B411A4301D14008400010BD1A
:100A7000F0B51FB482B005460C0003D0084605F05F
:100A800069FC02E005F066FC203002460090214639
:100A90002846FFF732FF049B059A04460F46184389
:100AA0001143084314D0184610431BD0009840212E
:100AB0000A1A18460599FFF730FF05460E46009AB8
:100AC00005990498FFF719FF084305D0012004E0B9
:100AD0002046394607B0F0BD0020C11705430E433C
:100AE0002C43374300990E986305401A7905E40AB0
:100AF00000220C43FD0A0A3002D500200146E9E736
:100B00000105101969410C9C0D9D00196941FFF701
:100B1000A2FFDFE74A0009030123090B1B05194364
:100B20000A4B10B5520D9A4202DA0020014610BD60
:100B3000064B34339A4203DC9A1AFFF7EEFE10BDDF
:100B4000034BD218FFF7D9FE10BD0000FF030000D1
:100B5000CDFBFFFF10B5002904DB0124E407404270
:100B60008C412146002B04DB1C460123DB0752424B
:100B7000A341994200D1904210BD0000064C0125CE
:100B8000064E05E0E36807CC2B430C3C9847103435
:100B9000B442F7D3FFF798FA50AA000870AA0008E9
:100BA000F7B582B0029C00272078641C1546019797
:100BB000302802D0002D15D015E020780127641CC4
:100BC000782804D0582802D0002D09D00BE0002D41
:100BD00001D0102D07D1002710252078641C02E0D9
:100BE000082500E00A250026009610E0009901275C
:100BF00069430818020C294680B2714300908E1890
:100C00003804864201D3012001902078641C2946D3
:100C100000F019F80028E9DA0398002805D0002F21
:100C200001D0641E00E0029C04600198002806D0F8
:100C300005F0B4FB02210160C81E05B0F0BD0099AB
:100C400030040843F9E73A2800D23038202302461E
:100C50009A43412A01D310463738884201D30020F5
:100C6000C043704730B587B0054603F06BFD0146C1
:100C70003D4880894843C117090D08180013FFF744
:100C8000ABFD0446642001F04FFA012D21D0374816
:100C900085423DD1002201A9354802F0CDFC002259
:100CA0006946334802F0A6FC684683784278C178EA
:100CB00030A005F02BFB684683794279017932A098
:100CC00005F024FB2046FFF7E8FD02460B4633A063
:100CD0003FE000226946264802F0AEFC002205A94A
:100CE000234802F087FC6846837D427DC17D21A0B8
:100CF00005F00CFB684683784278017822A005F065
:100D000005FB2046FFF7C9FD02460B4628A020E060
:100D10002C4885421FD1002201A9154802F08CFC05
:100D200000226946124802F065FC684683784278E2
:100D3000C17810A005F0EAFA684683794279017912
:100D400011A005F0E3FA2046FFF7A7FD02460B4687
:100D50001DA005F0DBFA21492046FFF719FBFFF73C
:100D600088FD80B207B030BD2C00002002000004D6
:100D7000DC0200205B252E32642D252E32642D25C9
:100D80002E3264200000000020252E32643A252EE9
:100D900032643A252E32645D000000006164635FB6
:100DA0006D562832293A252E32660D0A00000000C1
:100DB0006164635F6D562831293A252E32660D0A2B
:100DC00000000000100000106164635F6D5628335E
:100DD000293A252E32660D0A000000000000C842A4
:100DE00038B50446064805490068FFF781F96043B5
:100DF00000E0401E00900028FBD138BD40420F00AB
:100E000080000020F8B50446006881688907890FD2
:100E1000012902D10168C90722D18168114A10262F
:100E20001140012500290ED18168294381600120EC
:100E3000FFF7D6FF01F018FB07460CE001F014FBAA
:100E4000C01B0A2807D9606D30436065A06D284338
:100E5000A0650120F8BD20680068C043C007EDD13F
:100E60000020F8BD17000080F0B589B007460024C7
:100E700008F0BAFC53A13846FFF706FA524D002895
:100E80001AD052A13846FFF7FFF900282DD02E4680
:100E900018361820604331583846FFF7C3F9002848
:100EA00027D04BA13846FFF7BDF9002848D01820BD
:100EB0004443A01981684DE000226946454802F08C
:100EC000BBFB002205A9434802F094FB6846837DE2
:100ED000427DC17D40A005F019FA684683784278CA
:100EE000017842A005F012FA5EE0384606F092FA68
:100EF00065E0641CE4B20B2CCBD94148C07836289D
:100F00001BD000226946334802F096FB002205A957
:100F1000304802F06FFB6846837D427DC17D2EA084
:100F200005F0F4F968468378427801782FA005F03F
:100F3000EDF934A0696805F0E9F9012009B0F0BDC8
:100F400032A13846FFF76EF9002808D01820444334
:100F5000A019C168384688478000295825E02CA18F
:100F60003846FFF75FF9002823D0002203A919486B
:100F700002F062FB002202A9164802F03BFB684621
:100F8000837A427AC17A14A005F0C0F96846837B5F
:100F9000427B017B15A005F0B9F918204443A01944
:100FA000416918A005F0B2F9296816A005F0AEF95C
:100FB00005E018204443A0190169384688470020FD
:100FC000BCE7000041540000B8A3000841543F00B2
:100FD0003D3F0000DC0200205B252E32642D252ED3
:100FE00032642D252E3264200000000020252E3290
:100FF000643A252E32643A252E32645D00000000EA
:101000001E00002025730D0A000000003D000000B6
:101010003F00000010B5034800F0B6FF024800F0A2
:10102000B3FF10BD940200204C02002030B5446C88
:101030001C252C400125A540046C65600468636094
:101040008368102B036803D099600068C26030BDCC
:101050009A600068C16030BD70B588B0054600F088
:1010600023FA2946442000F02BFA344E304601F092
:101070005BF8284600F018FA2946BE2000F020FA56
:10108000284600F0C7F90446284600F0C3F90528B1
:1010900019D1502C17D1284600F006FA29464420D1
:1010A00000F00EFA304601F03FF8284600F0FCF957
:1010B0002946BE2000F004FA284600F0ABF90446A9
:1010C000284600F0A7F9000200B2204308D5C0432B
:1010D000401CFFF793FB0022194BFFF787FA05E04E
:1010E000FFF78CFB0322D243FFF760FBFFF7E9FB1E
:1010F0000446002202A9134802F09EFA002201A928
:10110000104802F077FA684683794279C1790EA0D7
:1011100005F0FCF86846837A427A017A0FA005F060
:10112000F5F82046FFF7B9FB02460B46294610A00A
:1011300005F0ECF8204608B070BD0000EE0200009B
:101140000000B0BFDC0200205B252E32642D252E6E
:1011500032642D252E3264200000000020252E321E
:10116000643A252E32643A252E32645D0000000078
:1011700044533138423230282564292074656D701B
:1011800020697320252E326620A1E3430D0A00005A
:1011900010B500230122194986B0012812D0052478
:1011A000240702281FD003281BD1C86A1043C86235
:1011B000C86A104005900815009069460193029294
:1011C00020460CE0CC6A02200443CC62C96A019339
:1011D000014005910820009002926946084801F0FC
:1011E00075F806B010BDC86A1043C862C86AC00767
:1011F000C00F059001204002DEE700000010024011
:101200000004005010B501221849022386B00128BD
:1012100012D00524240702281ED003281AD1C86A38
:101220001043C862C86A10400590081500906946CE
:101230000393019220460BE0C86A1843C862C86A4B
:1012400069461840059008200090039301920848D1
:1012500001F03CF806B010BDC86A1043C862C86A05
:10126000C007C00F059001204002DFE700100240D8
:101270000004005070B50024012806D005252D0774
:1012800002282AD003284ED074E00120FFF780FF07
:10129000394D04E0641CE4B2012000F0ABF90821F0
:1012A000284601F0D5F8002802D0642CF2D35FE084
:1012B000642C5DD2002404E0641CE4B2012000F040
:1012C00099F90821284601F0C3F8002802D1F02C32
:1012D000F2D34DE0F02C4BD24CE00220FFF758FF48
:1012E0000126760204E0641CE4B2012000F082F9D9
:1012F0003146284601F0ACF8002802D0642CF2D325
:1013000036E0642C34D2002404E0641CE4B20120F2
:1013100000F070F93146284601F09AF80028D9D13A
:10132000F02CF2D324E00320FFF732FF0126B602AF
:1013300004E0641CE4B2012000F05CF93146284668
:1013400001F086F8002802D0642CF2D310E0642C5F
:101350000ED2002404E0641CE4B2012000F04AF93B
:101360003146284601F074F80028B3D1F02CF2D3AE
:10137000012070BD002070BD0004005070B5012830
:1013800006D005242407022813D003282BD025E0FB
:101390000120FFF737FF1E4C00220821204601F0F4
:1013A0005CF80A2000F026F90120FFF7F1FE082181
:1013B0000EE00220FFF726FF01256D0200222946DC
:1013C000204601F04AF80A2000F014F9022018E043
:1013D000204601F03DF8012817D000222D2000F012
:1013E00009F9104670BD0320FFF70CFF0125AD027F
:1013F00000222946204601F030F80A2000F0FAF8D1
:101400000320FFF7C5FE2946E2E70122E6E70000D8
:101410000004005070B5002506462C463046FFF704
:10142000ADFFA0402843641CE4B2C5B2082CF5D33C
:10143000284670BD70B51A4D012814D00524240724
:10144000022825D0032822D1FFF7DCFE0022012646
:10145000B6023146204601F000F8284600F0CAF8EE
:10146000012231460DE00120FFF7CCFE0D4C002299
:101470000821204600F0F1FF284600F0BBF80122C9
:101480000821204600F0E9FF0F2000F0B3F870BDFE
:101490000220FFF7B7FE002201267602D9E70000FE
:1014A000EE0200000004005010B50446FFF7C2FF32
:1014B0002046FFF7DFFE2146CC2000F001F810BDEA
:1014C000F8B5044601291FD005252D07022949D06A
:1014D000032946D10320FFF795FE00260127BF020E
:1014E000E007C00F640800286BD000223946284668
:1014F00000F0B3FF082000F07DF8012239462846AD
:1015000000F0ABFF3A206AE00120FFF77BFE384E87
:101510000025E007C00F640800280ED00022082133
:10152000304600F09AFF082000F064F801220821FC
:10153000304600F092FF3A200DE0002208213046AC
:1015400000F08BFF462000F055F8012208213046BC
:1015500000F083FF022000F04DF86D1CEDB2082D65
:10156000D7D3F8BD0220FFF74DFE002601277F02EA
:10157000E007C00F640800280ED000223946284634
:1015800000F06BFF082000F035F8012239462846AC
:1015900000F063FF3A200DE000223946284600F0B3
:1015A0005CFF462000F026F801223946284600F06C
:1015B00054FF022000F01EF8761CF6B2082ED7D396
:1015C000F8BD00223946284600F047FF462000F0CB
:1015D00011F801223946284600F03FFF022000F0B2
:1015E00009F8761CF6B2082E00D279E7F8BD0000A3
:1015F0000004005006E00021491CC9B20429FBD3B5
:10160000401E80B20028F6D1704710B5082000F0C7
:1016100051FE10BD10B50120800300F04BFE10BD3F
:1016200010B586B0044614216846FEF7E4FD19485B
:10163000C26A02210A43C262C06A174A0840059082
:10164000480300900020002C06D0012C0DD0022C65
:101650000DD0032C0DD00FE00321019102906946BB
:10166000104600F033FE06B010BD0C4902E00C49F4
:1016700000E00C49019102906946104600F026FEF8
:1016800000220221072001F0ADFA072001F0A0FAA4
:10169000E9E7000000100240000400500000311093
:1016A000000021100000111000B587B0002269462B
:1016B0000D4801F0C1FF002205A90B4801F09AFF77
:1016C0006846837D427DC17D08A004F01FFE684608
:1016D0008378427801780AA004F018FE0DA004F087
:1016E00015FE07B000BD0000DC0200205B252E3295
:1016F000642D252E32642D252E326420000000003A
:1017000020252E32643A252E32643A252E32645D2D
:101710000000000057726F6E670D0A0010B508498F
:1017200000224A6107494B684C1523434B604B68C4
:10173000082423434B60C009C001026010BD0000B3
:10174000F80400200020024010B5214A00219069D1
:10175000C305204804D5416902231943416191150D
:1017600093699B0505D543690124234343616302C3
:10177000194393695B0505D54369082423434361F5
:10178000E301194393691B0505D5436904242343E9
:1017900043616302194393699B0405D5436910248F
:1017A000234343616302194393699B0304D544694E
:1017B00020231C43446119439369DB0305D5436926
:1017C000402423434361A0020143916110BD000006
:1017D00000200240F804002070B5054600F044FEE9
:1017E0000646184C0AE0681C08D0002D04D000F012
:1017F0003BFE801BA84201D9032070BDA069C00731
:10180000F1D1A069800701D50220A061A069C005BF
:1018100011D4A06980050ED4A06940050BD4A0693D
:10182000000508D4A069800405D4A069800302D40F
:10183000A069C00303D5FFF787FF012070BD00201A
:1018400070BD00000020024000B587B0142168463A
:10185000FEF7D1FC0B48C26A02210A43C262C06A89
:10186000084005908802009000200190012002901D
:101870000320039005206946000700F027FD07B00C
:1018800000BD00000010024000B587B0142168467A
:10189000FEF7B1FC0A48C26A01210A43C262C06A6B
:1018A0000191084005900803009000200290032059
:1018B00003906946034800F009FD07B000BD000031
:1018C0000010024000040050F3B56049044603C90B
:1018D00083B0009001912046FEF7CFFC03196846C3
:1018E00002785BA1184604F021FD2046FEF7C5FCF6
:1018F00003196846427856A1184604F017FD2046A1
:10190000FEF7BBFC03196846428853A1184604F051
:101910000DFD2046FEF7B1FC001951A1019A04F01B
:1019200005FD60252046FEF7A8FC00192A4648A1BF
:1019300004F0FCFC012000902F210498FEF793FC9A
:101940000546681C2F210195FEF78DFC050008D186
:101950003F210498FEF787FC054600200090002DEB
:101960002ED00098012814D0002001990601691A90
:10197000491ECFB23E432046FEF77FFC0019324697
:1019800033A104F0D3FC019904980026081A0190B1
:101990000EE00520E9E72046FEF76FFC01990019EB
:1019A0008A19049951184A7829A104F0BFFC761CC1
:1019B000BE42F0DB0098002804D0401CC0B200906A
:1019C0000028BED10498FEF758FC049940266F1AEF
:1019D000C01B401EC5B20D2D0BD928460D38C6B20E
:1019E0002046FEF74AFC00194D2219A104F09EFC86
:1019F00000E02E432046FEF740FC0019324614A1B9
:101A000004F094FC00260BE02046FEF736FC049917
:101A1000BA1951184A7800190DA104F087FC761CF8
:101A2000AE42F1DB81252046FEF727FC00192A464D
:101A300007A104F07BFC2046FEF71FFC00190222E0
:101A400003A104F073FC204605B0F0BD08A5000812
:101A5000252E327800000000252E3478000000008A
:101A6000252E38780000000010B502F0D7FE01499D
:101A7000486010BD7000002070B502F0CFFE0C4C25
:101A800000252060616888420ED0401AFEF7A4FE4F
:101A900008498969FEF7B9FCFEF7D2FE0649A06045
:101AA00040180649884200D3A560A06870BD0000B8
:101AB000700000202C000020881300001127000077
:101AC000F8B5054604464035287C0026012808D094
:101AD00001202874206881688907890F01290ED1A7
:101AE00001E00220F8BD0168C90708D0606D20211F
:101AF000084360650126002028743046F8BD616DFA
:101B0000FF2201329143022211436165C1688907B6
:101B1000890F0091C16889088900C16020688168C7
:101B200092071143816000F09FFC07460EE000F031
:101B30009BFCC01B0A2809D9606D02218843102133
:101B400008436065002028740120F8BD2068806883
:101B50000028ECDB2068C168009A1143C160606D09
:101B600080088000401C6065C5E70000F8B50646A7
:101B70000D464036317C01290DD0012131740168B8
:101B80008A68520709D5416D202211434165002022
:101B900030740120F8BD0220F8BD174B6A68D805E3
:101BA00047109A42154C8A6A2B6812D05B035B0B74
:101BB0001A438A622968490305D5A1680143A160D7
:101BC0000A20FFF70DF92868800312D5A068384372
:101BD0000EE05B035B0B9A438A622968490302D5D6
:101BE000A1688143A1602868800302D5A068B8433A
:101BF000A06000203074F8BD0110000000270140F3
:101C00000068006C7047000070B5040006D0606D7D
:101C1000264600254036002802D006E0012070BD8F
:101C2000A5653574204600F0D3F8606DC00603D476
:101C300021688868400705D5606D102108436065FC
:101C40003574EBE7606DFF220132904302221043AE
:101C5000606588688207920F5B48012A02D10A6892
:101C6000D2072BD1032362689B079A4205D05B42BF
:101C70009A4202D05B009A4209D10A699200920806
:101C80000A6121680A6963681A430A610CE00A69FB
:101C9000920092080A6181680F2292049143816048
:101CA00081686268114381602168CA6818239A4379
:101CB000CA602168CA68A3681A43CA6081680122A1
:101CC0005206914381608168A28E52061143816061
:101CD00020688168C90004D4816801221207114379
:101CE00081602068C168394A1140C1602069E1689B
:101CF000022825D000200143204620300278037BB3
:101D000052035B001A431143226B1143A2699203F1
:101D10001143E269D20311432268D3681943D160A9
:101D2000616A0A46FF3AC23A05D0A26A11432268A4
:101D3000D3681943D16042780121012A02D00BE017
:101D40000420D8E70078002823D0606D20221043BB
:101D50006065A06D0843A065E06B012820681FD076
:101D60000169C90703D00169490849000161206878
:101D70004169C908C900416120684169A26B1143EA
:101D80004161A565606D80088000401C6065002091
:101D900070BD2068C26801231B041A43C260DBE7E0
:101DA0000269FF239B009A43026120680269236C49
:101DB000A66C1A43636C33431A43026120680269BC
:101DC0000A430261D3E70000002701401902FEFF29
:101DD00010B586B0044614216846FEF70CFA0E4989
:101DE0002068884216D10D48416B4215114341636A
:101DF000C16A01221143C162C06A69461040059060
:101E0000132000900320019000200290052000077D
:101E100000F05CFA06B010BD002401400010024042
:101E2000F8B504464069254640350E4608280BD0D3
:101E30002068C068C00709D0606D20210843606534
:101E4000002028740120F8BD082700E00C2700F0CE
:101E50000BFB009011E0701C0FD0002E05D000F09D
:101E600003FB0099401AB04207D9606D0421084372
:101E70006065002028740320F8BD2068006838429F
:101E8000E9D0606D01214902084360652068C1689E
:101E900009058A0F0C21002A1BD12022125D002A7D
:101EA00017D10268120714D5826853070122002B4C
:101EB00008DB43688B434360606D13029843104313
:101EC000606506E0606D202318436065A06D1043D7
:101ED000A065A069002801D1206801600020F8BD3C
:101EE00070B50446216800208968490721D4254639
:101EF0004035297C01291CD001212974E16901297F
:101F000004D02046FEF77EFF002811D1616D0A4AF9
:101F10001140FF220132114361650021A16529743E
:101F200022681C21116021688A6804231A438A6090
:101F300070BD022070BD0000FEF1FFFF70B50024EF
:101F4000014620314A79022A03D00421C1630124C9
:101F500018E0026813680E25AB431360026813682B
:101F60005B085B001360436C1C2213400122154682
:101F70009D40036C5D604A7100220A71816B0029EB
:101F800000D08847204670BDF0B4016C0D68016830
:101F90000C68466C1C2304221E401746B7402F4293
:101FA0000ED067070CD50C68A40602D40C689443C5
:101FB0000C60416C19408A40016C4A60016B1AE068
:101FC0000227B74002462F402032002F17D0A70724
:101FD00015D50C68A40605D40C680A25AC430C6022
:101FE00001215171446C02211C40036CA1405960D5
:101FF00000211171C16A002918D0F0BC08470827D8
:10200000B7402F4212D0240710D50C680E25AC43E0
:102010000C60446C01211C400B46A340046C6360BF
:10202000C163517100211171416BE4E7F0BC70474D
:1020300070B504003CD01F48256814212818FEF70D
:1020400057F8800060641C4820640221204620303C
:102050000246417129681948E3680140A068666931
:102060001843236933431843A3691843E3691843AA
:10207000236A1843084328600121A0688903884225
:1020800010D00D488030836A656C1C210D400F26EE
:10209000AE40B3438362656C63680D40816AAB40B8
:1020A0000B4383620020E06301215171107170BD08
:1020B000012070BDF8FFFDBF000002400F80FFFF50
:1020C000F8B504468C46203001790025012909D055
:1020D0000126067141790027012905D007710225E3
:1020E0002846F8BD0220F8BD02214171E76320684F
:1020F000016849084900016061462046FEF796FFE5
:10210000206B00282068016801D00E2205E004221F
:1021100091430160206801680A2211430160206830
:10212000016831430160DBE770B5044600F09CF9BB
:102130000546601C00D0641C00F096F9401BA042CC
:10214000FAD370BDF8B51A4E0546307C0F4601280B
:1021500007D0012030741748FFF73EFB010002D082
:1021600021E00220F8BD0020C04338606C6814E014
:102170002046FFF7D3FA0F48FFF72EFB01460E4823
:10218000426808239A434260426843159A4342607A
:10219000002901D03C6006E08034A8686A68C0016C
:1021A0008018A042E4D8002030740846F8BD000032
:1021B000F804002050C30000002002400548416898
:1021C0000222114341604168012211434160002015
:1021D0007047000000200240F8B50C4C1646207CE9
:1021E0000F46012808D0012020740948FFF7F4FAAF
:1021F0000025002802D006E00220F8BD65613E609F
:102200000348FFF7E9FA2574F8BD0000F804002040
:1022100050C3000011484168C9070BD0EFF310818B
:1022200072B60F4AC2600F4AC26081F310884168DB
:10223000C9070ED1416889070DD5EFF3108172B639
:10224000094A0261094A026181F3108840688007E7
:1022500001D5012070470020704700000020024097
:10226000EFCDAB8905040302BFAE9D8C1615141388
:1022700010B501230B49042208280CD00C14A042ED
:1022800008D10948C48A641CC482086810430860E5
:102290000648837010BD0648037108681043086043
:1022A00010BD0000007000402C0000201E00002027
:1022B0000C00002010B504494A69024202D048616E
:1022C000FFF7D6FF10BD000000040140F8B5002361
:1022D0000124A7E027469F403A4070D04D68022D68
:1022E00001D0122D14D1DD08AD002D1800952D6AF6
:1022F0005E07AC46F50E0F26AE46AE406546B543CA
:10230000AC460E697546AE4065462E43009D2E6272
:102310004D68012D05D0022D03D0112D01D0122DB5
:1023200016D185680326AC465D00AE46AE406546D4
:10233000B543AC46CE687546AE4065462E438660D2
:1023400046680D79BE43ED06ED0F9D40354345606F
:1023500006685F000325BD40AE46AE430D79B44626
:10236000AE07B60FBE4065462E430660C66875468A
:10237000AE438D68BD403543C5604D68ED0050D516
:102380002B4D6E6B26436E639E082A4DB600751961
:10239000AC46AD689E07360F0F27B740BD430527F3
:1023A0003F07B84201D100271AE0234FB84201D1BC
:1023B000012715E0214FB84202D1022710E030E09A
:1023C0001F4FB84201D103270AE01E4FB84201D186
:1023D000042705E01C4FB84201D1052700E006277D
:1023E000B7402F436546AF60184D2E684F6896433F
:1023F000FF0300D516432E606E684F689643BF03F7
:1024000000D516436E60AE684F689643FF0200D554
:102410001643AE60EE684F689643BF0200D5164380
:10242000EE605B1C0A681546DD4000D052E7F8BD3F
:10243000001002400000014000040050000800505D
:10244000000C005000100050001C0050000401401F
:102450000069084000D001207047002A01D0816146
:1024600070478162704700000148006870470000B3
:102470007C00002070B5024640325378202B1CD1DE
:102480001378012B19D0012313702424547004688D
:1024900025689D432560046825681E03B5432560B3
:1024A000046825680D4325600068016819430160D0
:1024B000202050700020107070BD022070BD70B5DB
:1024C000024640325378202B1BD11378012B18D0B1
:1024D000012414702423537003681D68A5431D60F4
:1024E00005682B680F263602B34309021943296099
:1024F00000680168214301602020507000201070A6
:1025000070BD022070BD406C7047000070B50400C3
:1025100006D02546403568780026002802D005E020
:10252000012070BD2E70204600F0AAFA24206870A9
:10253000206801684908490001600F2160680906A8
:1025400088432168086121688A680120C0038243AA
:102550008A60E1680129A16808D021229202114312
:1025600022689160E168022902D005E00143F7E7A3
:1025700001212268C902516021684A680F4B1A4341
:102580004A602168CA688243CA6061692069084359
:10259000A169090208432168C860216AE06908430B
:1025A00021680860206801680122114301606664A7
:1025B000202068702663AE70002070BD008000028D
:1025C000FFB5054604464035687881B0202878D1AB
:1025D0002878012875D001202870FFF745FF0746AD
:1025E000012200901923D103204602F015FA002899
:1025F0003CD1222068701020A870002666640398E1
:102600006062049860856663618D2F48FF2903D955
:10261000FF22228500903BE0618D218500903DE006
:102620002046029902F0E4F916E002F01DFA0028B3
:102630001CD12068406A616A0870606A401C606250
:10264000208D401E81B22185608D401E6085608D89
:10265000002801D000290CD0608D0A9900283A4644
:102660002046E2D102F040FA00281CD0012005B03B
:10267000F0BD00970022802120460A9B02F0CCF991
:102680000028F3D1608DFF2805D9FF22228500960E
:1026900001231B06C4E7608D20850096208D012351
:1026A000C2B25B06BCE721682020C86121684A6885
:1026B000064B1A404A606870AE702E700020D6E754
:1026C000FFE70220D3E700000024008000E800FEBE
:1026D000FFB5054604464035687881B0202878D19A
:1026E0002878012875D001202870FFF7BDFE074625
:1026F000012200901923D103204602F08DF9002811
:102700003CD1212068701020A870002666640398D0
:102710006062049860856663618D2F48FF2903D944
:10272000FF22228500903BE0618D218500903DE0F5
:102730002046029902F05CF916E002F0FBF900284D
:102740001CD1606A216800788862606A401C6062FF
:10275000608D401E6085208D401E80B22085618D79
:10276000002901D000280CD0608D0A9900283A4633
:102770002046E2D102F0B8F900281CD0012005B0B3
:10278000F0BD00970022802120460A9B02F044F908
:102790000028F3D1608DFF2805D9FF2222850096FD
:1027A00001231B06C4E7608D20850096208D012340
:1027B000C2B25B06BCE721682020C86121684A6874
:1027C000064B1A404A606870AE702E700020D6E743
:1027D000FFE70220D3E700000020008000E800FEB1
:1027E000FFB5054604464035687883B0202875D18A
:1027F0000C98002814D00D98002811D028780128B2
:102800006CD001202870FFF72FFE074601220090B0
:102810001923D103204602F0FFF8002874D103E009
:102820000120400260646FE0222068704020A870A0
:10283000002666640C9860620D98608566630E9849
:102840000090019704A90EC9204602F071F80028F3
:1028500001D02E7058E0618D3448FF2905D9FF2240
:10286000228501231B06009006E0618D21850090E2
:10287000208D0123C2B25B062046049902F0B8F80D
:1028800000970022042120460E9B02F0C5F8002884
:102890003AD12068406A616A0870606A401C6062D0
:1028A000208D401E81B22185608D401E6085608D27
:1028B00000281FD000291DD100970022802120462A
:1028C0000E9B02F0A9F800281ED1608DFF2806D9C2
:1028D000FF22228501231B06009607E024E0608D7D
:1028E00020850096208D0123C2B25B062046049904
:1028F00002F07EF8608D0028C2D13A4620460E993B
:1029000002F0F2F8002802D0012007B0F0BD2068E4
:102910002021C16120684268054B1A4042606970FD
:10292000AE702E700020F0E70220EEE70024008059
:1029300000E800FEFFB5054604464035687883B0E0
:10294000202872D10C98002814D00D98002811D09E
:102950002878012869D001202870FFF785FD0746F7
:10296000012200901923D103204602F055F80028D7
:1029700071D103E00120400260646CE021206870A6
:102980004020A870002666640C9860620D986085EF
:1029900066630E980090019704A90EC9204601F0C5
:1029A000F7FF002801D02E7055E0608DFF2805D973
:1029B000FF22228501231B06009606E0608D2085FC
:1029C0000096208D0123C2B25B062046049902F0D6
:1029D0000FF83A4620460E9902F0ACF800283AD19A
:1029E000606A216800788862606A401C6062608D5D
:1029F000401E6085208D401E80B22085618D00299B
:102A00001FD000281DD100970022802120460E9B58
:102A100002F002F800281ED1608DFF2806D9FF229F
:102A2000228501231B06009607E024E0608D2085A7
:102A30000096208D0123C2B25B062046049901F066
:102A4000D7FF608D0028C4D13A4620460E9902F087
:102A50004BF8002802D0012007B0F0BD20682021EB
:102A6000C16120684268054B1A4042606970AE70CF
:102A70002E700020F0E70220EEE7000000E800FEE4
:102A800010B586B0044614216846FDF7B4FB104922
:102A90002068884219D10F4CE16A02200143E162AB
:102AA000E16A01400591C0200090122001210190AF
:102AB000032002910491039069460748FFF706FC42
:102AC000A06B012149050843A06306B010BD0000BA
:102AD00000540040001002400004005070B5040093
:102AE0000FD021681348086021681348086003CCA0
:102AF00041602068083C21688860FFF7B5FC054606
:102B000008E0012070BDFFF7AFFC401B302801D961
:102B1000032070BD2068C0680028F4D120680269D5
:102B2000E1688A4201D0016101E0044901600020AE
:102B300070BD0000CCCC000055550000AAAA0000D2
:102B4000006802490160002070470000AAAA000046
:102B500002480168491C0160704700007C000020A9
:102B600010B5084800240168402211430160204646
:102B700000F00AF8002801D0012401E000F01CF860
:102B8000204610BD0020024070B5054609487D2151
:102B90000024C9000068FDF7ABFA00F0B1FF00287F
:102BA00001D0012404E000222946501E00F01AF84A
:102BB000204670BD800000200448416B0122114373
:102BC0004163816B0204114381637047001002402E
:102BD000C106C90E01208840014908607047000005
:102BE00000E100E010B502F0B7FD10BD0248016839
:102BF00002151143016070470070004002480168EF
:102C0000421511430160704700700040024801689E
:102C10008215114301607047007000400A4B1A682A
:102C20009208920002431A60084803690422134381
:102C30000361012906D040BF20BF20BF0169914335
:102C40000161704730BFF9E70070004000ED00E01F
:102C5000F8B5044600785E4D800672D55C4E0027BC
:102C6000403EB06BC00004D4B06BA9050843B0630C
:102C7000012758480168C90511D40168821511431C
:102C80000160FFF7F1FB009005E0FFF7EDFB009915
:102C9000401A642837D84F480068C005F5D5326817
:102CA0000321090560680A400140914208D0810370
:102CB000890F032904D13168890301D50120F8BDAA
:102CC0002A69032109040A4022D0084090421FD0FB
:102CD000207880061CD528692A6988430121C90407
:102CE0000A432A612A698A432A612861C0050FD5EF
:102CF000FFF7BAFB009008E0FFF7B6FB0099411A16
:102D00003548814201D90320F8BD28698005F3D5F3
:102D100061688803800F032805D13268000582436B
:102D200001400A433260286903226168120411409D
:102D300008432861002F04D0B06B012109078843A4
:102D4000B0632078C00705D0E868A16880088000DB
:102D50000843E8602078800705D5E8680C2188439F
:102D6000E1680843E8602078400706D5E868032159
:102D70008902884321690843E8602078000706D566
:102D8000E86803210903884361690843E8602088F3
:102D9000C00506D5E868032109048843A1690843F2
:102DA000E8602078400606D5E86801218906884356
:102DB000216A0843E8602078000606D5E868032108
:102DC00089048843E1690843E8600020F8BD0000F9
:102DD000401002400070004088130000F8B50E4615
:102DE00005007DD053480068C007C00FB0420AD22A
:102DF0005048016849084900314301600068C00734
:102E0000C00FB04271D128784B4C800705D5E068DF
:102E1000F0218843A9680843E0602878C00752D0B1
:102E20006868022817D0032818D02168012818D014
:102E30008905002959DAE168890889000143E160C0
:102E4000FFF712FB69680746022912D003291CD03C
:102E5000012926D033E021688903EAE72168890146
:102E6000E7E74907E5E7FFF7FFFAC11B334881426F
:102E700023D8E0680007800F0228F4D123E0FFF791
:102E8000F3FAC11B2D48814217D8E0680007800F74
:102E90000328F4D117E0FFF7E7FAC11B2748814266
:102EA0000BD8E0680007800F0128F4D10BE0FFF792
:102EB000DBFAC11B2148814201D90320F8BDE0683B
:102EC0000007800FF3D11B480168C907C90FB14241
:102ED0000DD901684908490031430160006800E0EC
:102EE00003E0C007C00FB04201D00120F8BD287830
:102EF000400706D5E068072109028843E9680843CE
:102F0000E0602878000707D5E0680721C9028843F8
:102F10002969C9000843E06000F036F8E168084A12
:102F20000906090F515CC840064908600020FFF7F8
:102F30002BFEF8BD00200240001002408813000064
:102F400018A5000880000020044805490068C968E9
:102F5000044A4905490F515CC84070478000002071
:102F60000010024031A50008044805490068C968FE
:102F7000044A8904490F515CC84070478000002012
:102F80000010024031A5000810B5184AD1680C2085
:102F9000084004280BD0082810D00C2810D0506806
:102FA0000004410F0120C003491C884010BD106877
:102FB000C00601D50E4810BD0E4810BD0E4810BD0C
:102FC00088020E4B000F185C0902D368890F491C58
:102FD000DB0301D5084A05E01268D20601D5044A90
:102FE00000E0044A5043FDF783F810BD0010024092
:102FF00000093D000024F40000127A0028A5000812
:10300000FEB505007ED0F94CE7680C20E668074065
:103010000120000406402878C00747D0082F05D0BB
:103020000C2F0AD101200004864206D120688003BB
:103030003CD568680028E5D038E0012069680004C4
:10304000814203D121680143216011E0052301225F
:103050001B0492049942216802D111432160F1E7D7
:1030600081432160216801400091206890432060E5
:10307000686800280DD0FFF7F7F9009005E0FFF72A
:10308000F3F90099401A64287ED820688003F6D5A9
:103090000CE0FFF7E9F9009005E0FFF7E5F900998A
:1030A000401A6428F0D820688003F6D42878800776
:1030B0005CD5E868810604D5226820210A43226095
:1030C00088430923042F0DD00C2F01D1002E09D0E5
:1030D00000283BD02168994301432160FFF7C4F9E0
:1030E000064627E02168490701D500288AD0616893
:1030F0001F22120291432A69120211436160216862
:10310000994300E0C3E101432160FFF73DFFE1681F
:1031100009060A0FB649895CC840B6490860002014
:10312000FFF732FD002873D120E0FFF79DF9801BE7
:103130000228A9D820684007F7D560681F21090236
:10314000884329690902084360600FE0206840084D
:1031500040002060FFF788F9064604E0FFF784F995
:10316000801B022890D820684007F7D42878C00632
:1031700060D5002F0DD0E86900284AD02068FF21D3
:1031800001310843206000E0E8E0FFF76DF90646F2
:103190002CE02068800502D5E8690028A6D0606888
:1031A000072149038843696A084360606068298C85
:1031B0000002000A090608436060686A410B0120AA
:1031C000C003491C8840E16809060A0F8849895CE8
:1031D000C840884908600020FFF7D6FC002817D1B6
:1031E00028E0FFF741F9801B0228A2D8206880055B
:1031F000F7D56068072149038843696A084360601E
:103200006068298C0002000A09060843606011E02A
:1032100023E12168FF20013081432160FFF724F979
:10322000064604E0FFF720F9801B02289AD82068A0
:103230008005F7D42878704E000724D568690028E7
:10324000306910D0012108433061FFF70DF900907B
:1032500005E0FFF709F90099401A02287ED8306985
:103260008007F6D50FE0400840003061FFF7FCF81A
:10327000009005E0FFF7F8F80099401A02286DD891
:1032800030698007F6D42878400764D50020029082
:10329000A06BC00006D4A06B012109070843A063FE
:1032A0000120029055480168C90511D401688215B2
:1032B00011430160FFF7D8F8009005E0FFF7D4F85C
:1032C0000099401A642849D84C480068C005F5D5D3
:1032D000FF20AA680130824203D131690143316184
:1032E00011E001218902002A07D005231B029A421E
:1032F00003D132690A433261EFE7326982433261B6
:10330000306988433061A86800280ED0FFF7ACF818
:10331000009006E0FFF7A8F80099411A384881426A
:103320001CD830698005F5D50DE0FFF79DF80090B9
:1033300006E0FFF799F80099411A314881420DD80B
:1033400030698005F5D40298002804D0A06B0121D3
:1033500009078843A0632878800600E07CE02ED52A
:103360002848A9694314002916D0A26801210A43FC
:10337000A260626B0A436263016A19430162FFF74C
:1033800073F8064604E0FFF76FF8801B022863D845
:10339000A0688007F7D512E0A16849084900A1603C
:1033A000016A99430162FFF75FF8064604E0FFF700
:1033B0005BF8801B02284FD8A0688007F7D4A86A62
:1033C000002866D00C2F4DD0012636060228206832
:1033D00005D0B0432060FFF747F805463EE0B04314
:1033E0002060FFF741F8074613E00000001002409C
:1033F00018A5000880000020401002400070004026
:103400008813000000000140FFF72EF8C01B0228BF
:1034100022D820688001F7D4296BE86AE268084363
:10342000696BFD231B049A4311430843E060206845
:1034300030432060FFF718F8054604E0FFF714F862
:10344000401B022808D820688001F7D521E0FFF74B
:103450000BF8401B022801D90320FEBD2068800123
:10346000F5D416E00128F8D0E06801210904EA6AE1
:10347000014091420BD10F2189042A6B01409142F6
:1034800005D1032189050840696B884201D00120DC
:10349000FEBD0020FEBD000010B506480021817071
:1034A00041700548FFF74CFB0221122002F00EF894
:1034B00010BD00000C0000203C0100200548016800
:1034C00004221143016004480121817000214170F0
:1034D00070470000007000401E00002070B50446D8
:1034E000006881688025C90400290BDAC068C0051E
:1034F00008D52046FFF7E2FF2168C8682840FF385A
:103500008238C8602068816889040BD5C06880054E
:1035100008D52046FFF7C0FF2068C168054A29404A
:103520008918C16001200449400448610120203409
:10353000607070BD7FFDFFFF00040140F8B50546D7
:1035400004462035287801281DD00120287002204B
:1035500068702268CA205062226853205062FF209F
:1035600001300026FF2781421CD121688A688243EE
:103570008A60206881680122120391438160FEF70E
:1035800073FF009009E00220F8BDFEF76DFF00997F
:10359000411A7D20C00081421BD82068C068C00746
:1035A000F3D020E0206881680122520291438160BB
:1035B00020688168120191438160FEF755FF0090F9
:1035C0000DE0FEF751FF0099411A7D20C0008142B5
:1035D00005D920684762032068702E70F8BD206806
:1035E000C0688007EDD520684762012068702E70A2
:1035F0000020F8BD10B500680B464068C021C943E3
:1036000001400002000ECC04D870E40E5C708C0601
:10361000A40E0904490F9C701970002A0AD102F007
:10362000F1F8D870587802F0EDF85870987802F0F8
:10363000E9F89870002010BD30B50B460168896A22
:103640005960016809694904490C99600068046877
:103650000F482146014088024D04800E18706D0EFF
:1036600049065D70490E99706102490E402421405F
:10367000D970002A0AD102F0C5F81870587802F003
:10368000C1F85870987802F0BDF89870002030BDED
:103690007F7F7F00F8B5040050D02546203568783C
:1036A000002803D12870204600F052F802206870EC
:1036B0002168CA204862216853204862204602F0EF
:1036C000B5F8FF2604270028206802D046626F70F4
:1036D00034E081681D4A1140816021688868626811
:1036E000A369104322691A43104388602168E06887
:1036F0000861206801692289120411430161206870
:10370000C16880229143C1602068C16C890889002A
:10371000C164E169606901432068C26C1143C164FE
:103720002068806880060BD4204600F0C7F9002886
:1037300006D0206846626F70002028700120F8BD16
:1037400020684662012068700020F8BDBFFF8FFF2F
:1037500010B50068084988420DD108480169012266
:10376000920411430161002211460220FFF73AFA48
:103770000220FFF72DFA10BD002800404010024043
:10378000FEB506460446203630780B4601283ED06A
:1037900001203070022070701846203000902068A0
:1037A00000278068002A34D0400600D4DF701978E2
:1037B0009D7809040D435978DA78090212041143FF
:1037C0000D430099D869097809060D4305435869E6
:1037D000996905435868084300902168CA204862E7
:1037E000216853204862FF205A6A013080218242BA
:1037F00045D122689368834393602068C2680A4079
:10380000FF3A823AC260FEF72FFE019024E00220C8
:10381000FEBD400600D4DF70187801F0FBFF050400
:10382000587801F0F7FF00020543987801F0F2FFA5
:103830000543D878000405430098007801F0EAFFBA
:1038400000060543D869C1E7FEF70EFE0199411A4B
:103850007D20C00081422AD82068C068C007F3D00C
:103860002068C56121680098486420688168FF224B
:1038700001321143816020688168120130E02068C4
:10388000826801235B029A4382602068C2680A4012
:103890001D495118C160FEF7E7FD01900EE0FEF7EB
:1038A000E3FD0199411A7D20C000814206D92168BB
:1038B000FF204862032070703770FEBD2068C0682A
:1038C0008007ECD52068056221680098886420682C
:1038D00081680122520211438160206881681201CF
:1038E0001143816009480268012149040A430260CA
:1038F00082680A4382602168FF204862012070705C
:1039000037700020FEBD00007FFDFFFF0004014076
:10391000F8B505460446203528780B4601280FD017
:103920000120287002206870002A0BD0D8789E7879
:10393000000406435878097800024903084317E059
:103940000220F8BD5878C10603D5EF2108400A309F
:103950005870D87801F05EFF0604587801F05AFFDD
:1039600000020643987801F055FF0643187840039B
:1039700006432168CA2048622168532048622046D5
:1039800001F054FF0027002811D11148064020689B
:1039900046602068C16880229143C16020688068C9
:1039A00080060CD4204600F089F8002807D0216852
:1039B000FF204862042068702F700120F8BD216844
:1039C000FF204862012068702F700020F8BD0000C1
:1039D0003FFFFF00F8B506460446203630780D4616
:1039E000012822D00120307002207070206800274A
:1039F0008068002A1BD0400600D4EF702978A87890
:103A0000090408436978EA7809021204114308435B
:103A100000902168CA2048622168532048622046ED
:103A200001F004FF002837D116E00220F8BD40065F
:103A300000D4EF70287801F0EDFE0304687801F0FF
:103A4000E9FE00020343A87801F0E4FE0343E878AE
:103A5000000403430093DCE71749009808402168FD
:103A6000086020688168012292049143816029697D
:103A7000E868084321688A68104388602068C16844
:103A800080229143C1602068806880060CD4204663
:103A900000F014F8002807D02168FF2048620420B5
:103AA000707037700120F8BD2168FF204862012046
:103AB000707037700020F8BD7F7F7F0070B50446BE
:103AC0000068C168A0229143C160FEF7CDFC7D264D
:103AD0000546F60006E0FEF7C7FC401BB04201D9E0
:103AE000032070BD2068C0688006F4D5002070BD3A
:103AF00002480169022211430161704700E000E0C1
:103B0000094910B5401E884201D9012010BD074C5B
:103B100060610321081F01F01FFE0020A061072043
:103B20002061002010BD0000FFFFFF0000E000E06A
:103B300002480169022291430161704700E000E000
:103B4000F0B502462032137E012B15D001271776DF
:103B50000223537605686C68AB687026B4430E6820
:103B6000496826438024A34319436E60006881603E
:103B7000577600201076F0BD0220F0BD70B504002D
:103B800005D025462035687E002802D006E00120B9
:103B900070BD00202876204600F00AF802206876E2
:103BA000211D206801F032FF01206876002070BDE1
:103BB00010B50122016892071248914204D1816B2D
:103BC00001221143816310BD0F4A91420AD1816BDA
:103BD000022211438163002211461020FFF702F8F0
:103BE00010200CE0094A9142EDD1816B2022114353
:103BF0008163002211461220FEF7F4FF1220FEF727
:103C0000E7FF10BD00100240000400400014004017
:103C10000268D36801210B43D360006882685207B1
:103C2000520F062A02D002680A4302600020704741
:103C30000168CA6852085200CA600068016A044AF2
:103C4000114203D101684908490001600020704712
:103C500011110000F8B5054604462035287E0128DC
:103C600017D001262E760220687622689068772782
:103C7000FF23B8431B02984390600A68502A31D052
:103C80000EDC202A4BD006DC002A48D0102A3AD17C
:103C900045E00220F8BD302A41D0402A33D136E039
:103CA000602A27D0702A12D001200003121A2AD0CD
:103CB000824228D1CB684A688968206801F0DAFE20
:103CC0002068816801229203114381601BE0CB6868
:103CD0004A688968206801F0CDFE21688868384309
:103CE000886010E0CA684968206801F0D6FE50215B
:103CF000206806E0CA684968206801F0DFFE60219C
:103D0000206801F0C2FE6E7600202876F8BDCA68F1
:103D10004968206801F0C1FE40212068F1E71146A2
:103D20002068EEE7704770B5044600680169002519
:103D3000C9438907002915DBC168C943890711D424
:103D4000E91E0161012020762068806980072046F5
:103D500002D0FFF7E7FF04E000F078F8204600F01B
:103D600076F8257620680169C943490717D4C168E8
:103D7000C943490713D40421C943016102202076B5
:103D8000206880698005800F204602D0FFF7CAFFB7
:103D900004E000F05BF8204600F059F82576206832
:103DA0000169C943090716D4C168C943090712D478
:103DB0000821C9430161042020762068C06980077A
:103DC000204602D0FFF7AEFF04E000F03FF82046A7
:103DD00000F03DF8257620680169C943C90617D46B
:103DE000C168C943C90613D41021C9430161082021
:103DF00020762068C0698005800F204602D0FFF73A
:103E000091FF04E000F022F8204600F020F825762B
:103E100020680169C943C90708D1C168C943C907F6
:103E200004D1891E0161204600F012F82068016962
:103E3000C943490609D4C168C943490605D440218C
:103E4000C9430161204600F08FF870BD704770478C
:103E500070B52E492E4C88B088420AD120780128AE
:103E600005D1002104F03AFC2848FFF7E1FE08B034
:103E700070BD28498842FAD1E07900250126012841
:103E800003D06079012820D03BE0002203A922481A
:103E9000FFF7D2FB002202A91F48FFF7ABFB6846E1
:103EA000837A427AC17A1DA002F030FA6846837B99
:103EB000427B017B1EA002F029FA22A002F026FA22
:103EC000E571E670257165711BE06571002202A93C
:103ED0001148FFF7B1FB002201A90F48FFF78AFB49
:103EE000684683794279C1790CA002F00FFA6846DE
:103EF000837A427A017A0EA002F008FA16A002F044
:103F000005FA0448FFF794FE6670B0E778030020D6
:103F10000C0000203C030020DC0200205B252E3238
:103F2000642D252E32642D252E32642000000000E1
:103F300020252E32643A252E32643A252E32645DD5
:103F4000000000002B50574F52443A2054494D4531
:103F50004F55540D0A0D0A004E6F20616374696F4E
:103F60006E0D0A0D0A00000070477047154910B524
:103F700088421ED10168CA69C06F04281AD006DCC5
:103F800000280FD0012805D002280BD106E0082810
:103F900008D113E0486A886A012002E0486A886A0A
:103FA0000420086200F0DAFF01220749054800F00A
:103FB0006BF910BD486A886A0220F2E7486A886A8D
:103FC0000820EEE74C010020B6030020F8B5026897
:103FD0000446D0691168936805072D0F5BD0DD0793
:103FE000ED0FFF2621360E402E4367D0C60706D0C0
:103FF000CE0504D501261662E26F3243E2678707D9
:1040000002220426002F06DADF0704D027683A626E
:10401000E76F3743E767470706D5DB0704D0236818
:104020001E62E36F1343E367020709D520220A40AB
:104030002A4305D0236808221A62E36F1343E3671B
:10404000E26F002A2FD0800606D5880604D5216E9F
:10405000002901D020468847E06F21688968490619
:1040600001D4000724D5204601F03FFE2068816876
:10407000490619D58168402291438160E06E00288D
:1040800012D020498163E06EFDF758FF00280AD066
:10409000E06E816B06E0850610D58D060ED5216E8B
:1040A0001CE020468847F8BD2046FFF75FFFF8BDBB
:1040B0002046FFF75BFF0020E067F8BDC50208D58A
:1040C0005B0206D50120000510622046FFF74DFF78
:1040D000F8BD030605D50B0603D5616E0029E0D1B6
:1040E000F8BD4006FCD54806FAD5136820464021A5
:1040F0008B431360202161670021616600F020FB83
:10410000F8BD00000D5C000810B5040003D0606F1E
:10411000002802D007E0012010BD002170200155C9
:10412000204600F027F824206067206801684908CD
:1041300049000160204601F049FE0128ECD0606A88
:10414000002802D0204601F0CCFC206841680922FA
:10415000D20291434160206881682A2291438160A4
:1041600020680168012211430160204601F01EFD14
:1041700010BD0000F0B587B0064614216846FCF774
:104180003AF83B4D33683B48022103220024AB42FE
:104190004AD1836B4D042B438363C36A0B43C362D1
:1041A000C06A6B46084005909002039213C3072033
:1041B000049069463048FEF789F8314D2F48AC60CD
:1041C0000527EC6081C5EC6080202C61A860202070
:1041D000AC6168612A48083DFDF72AFF002801D03C
:1041E000FDF762FAF566AE622448254D143848356D
:1041F00081C510206C602860EC602C616C618020AF
:10420000AC61A86028460838083DFDF711FF00287A
:1042100001D0FDF749FAB566002211461D20AE62B5
:10422000FEF7E0FC1D201FE0164DAB421ED1836B54
:1042300001256D042B438363C36A01252B43C362AD
:10424000C06A6B46284005900C20039213C30420DB
:104250000490052069460007FEF738F80022114651
:104260001C20FEF7BFFC1C20FEF7B2FC07B0F0BD1F
:10427000004800400010024000040050300002409E
:104280004C02002000440040F8B50446806F20280E
:104290004DD100290BD0002A09D00123A0681B03AF
:1042A000984206D12069002803D1C80701D0012017
:1042B000F8BD25466035287C012838D001202874B7
:1042C0005820616502530026E6672220A067E06E51
:1042D000002819D01749C162E16E17480863E16EE2
:1042E00016484863E06E13468663676D21683A4658
:1042F0002431E06EFDF7E4FE002805D01020E067D1
:104300002E7420206067D2E72E7420680168FF2297
:1043100001321143016020688168012211438160EC
:10432000206881684022114381600020F8BD02208E
:10433000F8BD0000695C0008A75C0008215C00086B
:10434000F0B5836F202B54D100290AD0002A08D061
:104350008568DC01A54206D10369002B03D1CB0798
:1043600001D00120F0BD034660331E7C012E40D0F9
:1043700001261E744165014640310A834A830022AA
:10438000FF260266A54204D10569002D13D11A4DFE
:104390000AE07F27002D09D001263607B5420CD14F
:1043A0000569002D05D03F258D8307E00569002DA7
:1043B00001D08F8302E08E8300E08A83C2672221CE
:1043C000816701688D68012635438D608168A1424F
:1043D00002D1016900290AD0084901661A740068EF
:1043E0000168FF222132114301600020F0BD044921
:1043F000F3E70220F0BD0000FF010000735D00083C
:104400001B5D0008F0B5594C574A21460C3189B064
:10441000009190427ED1A11C0098FBF7F7FE54A1B9
:104420000098FBF7FFFE0127534D002806D00098A7
:10443000FBF723FF0019C07A0A2807D04F4E0098D7
:104440003168FBF7EFFE00283CD135E0E8783628EC
:104450001BD1002203A94A48FFF7EEF8002202A967
:104460004748FFF7C7F86846837A427AC17A45A081
:1044700001F04CFF6846837B427B017B46A001F044
:1044800045FF4AA0009901F041FF2C210098FBF75D
:1044900009FF06460020019001A8FBF7EEFE01A9E6
:1044A00040182A7843A101F041FF694670780979E4
:1044B00088422ED167702CE071680098FBF7B2FE3D
:1044C000002826D00098FBF7D8FE0019C07A0A28E9
:1044D0001FD1E87836281BD1002202A92848FFF70F
:1044E000ABF8002201A92648FFF784F868468379D3
:1044F0004279C17923A001F009FF6846837A427AA4
:10450000017A25A001F002FF28A0009901F0FEFE2B
:10451000277000E008E00122A11C1348FFF7B4FE59
:104520000028F6D009B0F0BD23498842FAD12348CB
:104530008079002810D0A11C0098FBF767FEA078B6
:104540000D2809D101F03EF81D4901200968C0433A
:1045500008611B48FFF75CFB0122A11C1648FFF70E
:10456000EFFE0028F8D0DDE74C010020B403002066
:104570002B4E534F535452001E000020A0A300089E
:10458000DC0200205B252E32642D252E32642D2581
:104590002E3264200000000020252E32643A252EA1
:1045A00032643A252E32645D0000000025730D0A46
:1045B0000000000025630000CC0100200C0000205A
:1045C0003C0300207047FFB50446406F83B0174698
:1045D0000D4620285CD1002D0AD0002F08D0A168FC
:1045E000C001814207D12069002804D1E80702D028
:1045F000012007B0F0BD204660300290007C012809
:1046000046D00298012101740020E06721206067F4
:10461000FDF72AFF26464036019037827782012037
:10462000A1680003814202D12069002802D02F46F0
:10463000002511E000270FE000228021204601F034
:10464000E3FC002815D1002F15D021683878886246
:104650007F1C708A401E7082708A019B0028069819
:104660000090E9D100224021204601F0CDFC002835
:1046700008D00320BDE728882168C005C00D8862E6
:10468000AD1CE6E720206067029900200874B0E7BF
:104690000220AEE7F8B50446406F202847D1002934
:1046A0000BD0002A09D00123A0681B03984206D131
:1046B0002069002803D1C80701D00120F8BD254694
:1046C0006035287C012832D00120287420464030F3
:1046D000E164028242820026E66721206067A06EC4
:1046E000002819D01349C162A16E13480863A16E56
:1046F00012484863A06E134686632768E16C3A4609
:104700002832A06EFDF7DCFC002805D01020E06701
:104710002E7420206067D0E72168402008622E7444
:10472000206881688022114381600020F8BD02204A
:10473000F8BD0000B15C0008E15C0008215C0008E5
:10474000704770477CB506461A484168C943090757
:10475000FBD4194C606B6515284360630021174832
:10476000FDF7AEF9164800901648019069461348C7
:10477000FDF7FCF9A0140190694600960F48FDF77B
:10478000F5F90E48FDF7ACFB0021C9430B48FDF7D6
:1047900047FB0A48FDF734FA084980B20A68936873
:1047A000022633439360096803220A60616BA943C0
:1047B00061637CBD00700040001002409400002046
:1047C000FFFF07000110000038B50B231B07C518B9
:1047D000114B0FD01C152D1B18D02D1B19D0A54225
:1047E000DD6A05D108242543DD62DB6A234007E04A
:1047F0008024F8E7DC6A01252C43DC62DB6A2B406D
:10480000009311601146FDF761FD38BDDD6A022499
:10481000E9E7DD6A0424E6E700100240F8B501216B
:1048200005200022C9020007FDF717FE002401261B
:10483000194F360331463846FDF70AFE0028F9D1F4
:10484000002501220527D6023F0731463846FDF7ED
:1048500004FE6400002231463846FDF7FEFD71007B
:104860000D48FDF7F5FD012800D1641C6D1CEDB26B
:10487000182DE6D301220526D502360729463046F3
:10488000FDF7EBFD28034440002229463046FDF7A2
:10489000E4FD2046F8BD000000040050FEE701687A
:1048A0008A69D243920701D400228A620068816932
:1048B000C943C90703D0816901221143816170474F
:1048C000F7B5044600680E468069C043C0062BD485
:1048D00020272546403520688069C043800612D5D0
:1048E000701CF8D0FDF7C0FD0299401AB04201D803
:1048F000002EF0D1606C384360646F700020A870A7
:1049000028700120FEBD21681020C8612068C761A1
:104910002046FFF7C4FF20684168044A1140416007
:10492000606C04210843E7E70020FEBD00E800FEBC
:10493000F8B50446164615481D46DAB20090079FA2
:104940000023204600F054F83A462046069900F02D
:10495000F1F8002818D12846F5B2012809D02168BD
:10496000300A88623A462046069900F0E3F80028AB
:104970000AD1206885620097002240212046069BCC
:1049800000F04AF8002800D00120F8BD0020008087
:10499000F8B50446164615481D46DAB2C302009023
:1049A000079F204600F024F83A462046069900F07A
:1049B000C1F8002818D12846F5B2012809D021688D
:1049C000300A88623A462046069900F0B3F800287B
:1049D0000AD1206885620097002280212046069B2C
:1049E00000F01AF8002800D00120F8BD0020008057
:1049F000F0B50668059C7568064F600D3843854321
:104A00008805800D11040843184320430543756051
:104A1000F0BD0000FF63FF03F8B51D4617460E46C4
:104A2000044609E0681C07D0FDF71EFD0699401AF0
:104A3000A8420BD8002D09D02068816930468843F0
:104A40000FD00020B842EDD00020F8BD616C2020CE
:104A500001436164403460700020A0702070012028
:104A6000F8BD0120EEE70000F7B500272026054637
:104A70000446403528E02046029A0199FFF720FFBE
:104A8000002801D00120FEBD20688069C043800657
:104A900011D420688169C943490702D4218D0029B6
:104AA00017D1C661206841680E4A114041606764B1
:104AB0006E70AF7013E0FDF7D7FC0299411A0198B0
:104AC000814208D8002806D020688069C04340078A
:104AD000D1D40020FEBD606C304360646E702F70D6
:104AE000D0E7000000E800FE70B516460D4604460B
:104AF0000FE0324629462046FFF7E2FE002801D0AB
:104B0000012070BDFDF7B0FC801BA84208D8002D25
:104B100006D020688069C0438006EAD4002070BDBA
:104B2000616C202001436164403460700020A070FB
:104B30002070E5E770B516460D46044611E0324692
:104B400029462046FFF7BCFE002801D0012070BD99
:104B5000681C06D0FDF788FC801BA84208D8002DF1
:104B600006D020688069C0438007E8D4002070BD6B
:104B7000616C202001436164403460700020A070AB
:104B80002070E3E730B58BB000F0A6F946A00068CE
:104B9000059005F0DFFA7D25012405A8ED000090C1
:104BA00023460022C421029501944048FDF7C2FE2D
:104BB00005F0D0FA3E49884259D203A8009001235B
:104BC0000F22C521029501943848FDF709FE04A87B
:104BD000009001231022C521029501943348FDF76E
:104BE000FFFD6846007B01026846007C081885B21C
:104BF0007D20400185421DD9002206A92D48FEF7DF
:104C00001BFD002269462B48FEF7F4FC68468378BA
:104C10004278C17828A001F079FB6846837E427E05
:104C2000017E2AA001F072FB2DA001F06FFB33483A
:104C30000BB030BD002206A91E48FEF7FDFC002285
:104C400069461C48FEF7D6FC6C46A3786278E1788A
:104C500019A001F05BFBA37E627E217E1BA001F008
:104C600055FB294626A001F051FB2846E0E700222B
:104C700006A91048FEF7E0FC002269460D48FEF741
:104C8000B9FC684683784278C1780BA001F03EFBFE
:104C90006846837E427E017E0CA001F037FB1DA09A
:104CA00001F034FB2248C3E704000000F0000020BC
:104CB0000F270000DC0200205B252E32642D252EFC
:104CC00032642D252E3264200000000020252E3273
:104CD000643A252E32643A252E32645D00000000CD
:104CE00044697374616E6365206973206F75742005
:104CF0006F662072616E67650D0A0000FFFF00009D
:104D000044697374616E6365203D2564636D0D0AAB
:104D1000000000006C696461725F6C6974652069F1
:104D200073206E6F7420636F6E6E6563740D0A007E
:104D3000FF0F00001CB5002127480091254A019172
:104D40000260C163816001248163120504614260D5
:104D50000246C16020321170FF235170C23343629A
:104D60008162117301638161042241634261C16107
:104D7000FCF74AFF002801D0FCF796FC0120000355
:104D80000190694600941448FCF7F0FE002801D019
:104D9000FCF78AFC1148009069460F48FCF7E6FED4
:104DA000002801D0FCF780FC0D48009069460A48B5
:104DB000FCF7DCFE002801D0FCF776FC09480090E7
:104DC00069460548FCF7D2FE002801D0FCF76CFCD0
:104DD0001CBD0000002401409400002002000004DB
:104DE000100000100000024408B50848016B0122C1
:104DF00011430163006B10400022009011460A200D
:104E0000FDF7F0FE0A20FDF7E3FE08BD00100240AA
:104E100030B587B014216846FBF7EDF92748C26A20
:104E200004210A43C262C26A0A400592C26A802112
:104E30000A43C262C26A0A400592C16A0122114352
:104E4000C162C16A11400591C26A02210A43C2626D
:104E5000C06A032408400590080300256A4631C251
:104E600069461748FDF732FA0094694615480295DD
:104E70000194FDF72BFA14486A4631C205206946B1
:104E80000007FDF723FA11486A4631C2104C694603
:104E90002046FDF71BFA200100900E48019069465C
:104EA00002952046FDF712FA002202210720FDF7A5
:104EB00099FE0720FDF78CFE07B030BD00100240C0
:104EC00000080050001C0050E09F00003FB30000AD
:104ED000000400500000211010B513481149016072
:104EE00012494160002181600161416181610122BB
:104EF000C161C2600162FDF709FB002801D0FCF727
:104F0000D3FB00210848FDF7B5FA002801D0FCF7D3
:104F1000CBFB00210448FDF7D2FA002801D0FCF7B2
:104F2000C3FB10BD00540040F0000020BB7C7000AB
:104F300010B5084806490160062141600649C16074
:104F40008160FDF7CBFD002801D0FCF7ADFB10BD63
:104F5000003000403C010020FF0F000010B50C485D
:104F60000A4901604B21C901416000218160C16093
:104F7000016181610C22016242614162FFF7C4F864
:104F8000002801D0FCF790FB10BD00000048004055
:104F90004C01002010B586B014216846FBF72BF9B0
:104FA000002419491948059412C07F2101608460CA
:104FB000C4600461FF21446141600838FEF76AFB68
:104FC000002801D0FCF770FB6846047044708470C0
:104FD0000394012269460D480494FEF7FBFC002867
:104FE00001D0FCF761FB012069460875487588759A
:104FF000CC75024605A90548FEF78AFC002801D0B9
:10500000FCF752FB06B010BD00280040DC02002077
:1050100010B586B000240094012116480194029432
:10502000039404948907059401609F218460416082
:10503000046111494461C160FEF7A0FD002801D060
:10504000FCF732FB01200003009069460948FEF797
:1050500001FE002801D0FCF727FB049404A90548B1
:105060000594FEF76DFD002801D0FCF71DFB06B08E
:1050700010BD000000030020FFFF000010B586B047
:105080000024009416480194029403940494134954
:1050900005940160134984604160046112494461D0
:1050A000C160FEF76BFD002801D0FCF7FDFA01207E
:1050B0000003009069460A48FEF7CCFD002801D0A5
:1050C000FCF7F2FA049404A905480594FEF738FDAC
:1050D000002801D0FCF7E8FA06B010BD000400403B
:1050E0003C03002008CF0000A08C00001CB5002469
:1050F0000E49009401940C4A8C600A6048600C4888
:105100004C61C8600846FEF739FD002801D0FCF765
:10511000CBFA0094694605480194FEF711FD00287A
:1051200001D0FCF7C1FA1CBD001400407803002038
:10513000A08C000010B50C480A4901604B21C90140
:10514000416000218160C16001618161C1610C2207
:10515000016242614162FEF7D7FF002801D0FCF7EF
:10516000A3FA10BD00440040CC010020F0B595B07A
:1051700000220DA9B448FEF75FFA002213A9B24835
:10518000FEF738FA10A8837B427BC17BAFA001F009
:10519000BDF808A8837D427D017DB1A001F0B6F87D
:1051A000B4A001F0B3F8BAA002F010FFBB483A2156
:1051B0000546FBF758F807462C212846FBF753F81D
:1051C00004464F212846FBF74EF80646002006907D
:1051D000079005900190029003900490E51B0090C9
:1051E0000E900D90119001466A1E109007E0AB4B97
:1051F0006F180C3BFB18DF7A05AB5F54491C8A42E1
:10520000F5DC0546009010E0009000290DD0012942
:1052100016D002291DD0491C0329F5DB9F4A002026
:105220000C3A311B01AB4C1F21E06846017D017037
:10523000417D4170FBF746F80F9001212846E3E7D6
:105240006846C17D0170017E4170FBF73BF8009517
:105250000E906846817E0170C17E4170FBF732F886
:105260000D90DBE70E18B618767B1E54401C844266
:10527000F8DC009591E000950028FBD001287DD056
:1052800002287CD003287BD0401C0428F3DB1421A7
:1052900008A8FAF7B0FF82496B48129522C07F2117
:1052A00001608560C5600561FF2145614160083886
:1052B000FEF7F0F9002801D0FCF7F6F90A212046A4
:1052C000FAF72CFF0001091808A801700A211198AB
:1052D000FAF724FF0001091808A841700A21109864
:1052E000FAF71CFF0001091808A8817001460B9508
:1052F000012255480C95FEF76DFB002801D0FCF704
:10530000D3F9012110A801720A210E98FAF706FFBD
:105310000001091810A841720A210D98FAF7FEFE43
:105320000001091810A881720A210F98FAF7F6FEF9
:105330000001091810A8C172012212A94248FEF703
:10534000E7FA002801D0FCF7AFF900220DA93E488A
:10535000FEF772F9002213A93B48FEF74BF910A89B
:10536000837B427BC17B39A000F0D0FF08A8837DFE
:10537000427D017D3AA000F0C9FF02E017E020E085
:1053800028E048A000F0C2FF4E48FDF7D9FB0221FB
:10539000122000F09BF815B0F0BD6846017901704D
:1053A00041794170FAF78EFF0446012063E76846B1
:1053B000C1790170017A4170FAF784FF11900220DF
:1053C00059E76846817A0170C17A4170FAF77AFF2D
:1053D000009510902B2101A8FAF745FF07462D21D3
:1053E00001A8FAF740FF0646002F06D06846FAF7F4
:1053F00044FF694640187A1C07E0002E08D0684632
:10540000FAF73BFF69464018721C2FA100F08EFF8F
:105410006846FAF757FF002800DC38E7002F08D06D
:10542000C117890F081880100419182CF5DB183CD7
:105430002DE7002EF1D0C117890F08188010241A0B
:10544000EBD5183423E70000DC0200205B252E3268
:10545000642D252E32642D252E326420000000009C
:1054600020252E32643A252E32643A252E32645D90
:10547000000000005761697420666F722063616CE0
:105480006962726174696F6E2074696D650D0A00DE
:1054900041542B43434C4B3F0A000000C003002003
:1054A0000028004043616C6962726174696F6E200C
:1054B00074696D6520636F6D706C657465640D0A49
:1054C000000000003C01002025730000F0B501251C
:1054D0006D0293B00C460646022902D0012C02D080
:1054E00006E0294601E0FF2101313548FEF726F8A4
:1054F000282105A8FAF77FFE002269463048FEF70A
:105500009BF8002211A92E48FEF774F8E121090149
:105510003046FAF7EDFDC6B208463C21FAF7E8FD41
:10552000C7B26846807840180A21FAF7E1FD000109
:105530000818C0B25928694604D960388875487877
:105540007F1C01E0887548780A21C019FAF7D0FD60
:1055500000010818C0B25928694604D96038487556
:105560000878761C01E0487508780A218019FAF756
:10557000BFFD00010818C0B22328694600D92438AD
:105580000875002001210690C907089009900B902A
:105590000C900A91012008A90875012C0CD00E95D9
:1055A000012205A90648FEF7EBF8002801D0FCF718
:1055B0007BF8002013B0F0BDFF2001300E90EFE724
:1055C000DC020020F0B5464889B0054604F00CF92D
:1055D00044492846FAF758FE424EFF24083E2D342F
:1055E0000028F07902D000282DD001E000280CD04E
:1055F0002846FAF742FE3C4E002840D02846FBF7EA
:1056000033FCF078362865D13CE0002203A9374806
:10561000FEF712F8002202A93448FDF7EBFF6846B6
:10562000837A427AC17A32A000F070FE6846837BAA
:10563000427B017B33A000F069FE37A000F066FEDC
:105640000120F07146E0002202A92848FDF7F4FF8E
:10565000002201A92548FDF7CDFF684683794279EC
:10566000C17923A000F052FE6846837A427A017A1B
:1056700024A000F04BFE2EA000F048FE2AE0F078B7
:10568000362827D12846FAF7F8FD002822D02846E8
:10569000FAF7F3FD801C064603F00AFA0746314686
:1056A000FAF7A9FD0E493846491CFAF7AFFD214625
:1056B0002846FAF7A0FD25A13846FAF7A7FD384697
:1056C000FAF7DBFD82B239462148FEF7E3FF3846A0
:1056D00002F0B2FE21462846FAF78DFD09B0F0BD72
:1056E000C0030020140000201E000020DC02002067
:1056F0005B252E32642D252E32642D252E3264201A
:105700000000000020252E32643A252E32643A250E
:105710002E32645D000000000D0A50617373776FD4
:10572000726420436F72726563740D0A0D0A000083
:105730000D0A50617373776F726420496E636F72E4
:10574000726563740D0A0D0A000000000A00000073
:105750004C010020704700008307FF22DB0E9A40B7
:105760008907090E994000280BDA0007000F083856
:10577000830808489B001818C36993430B43C3610F
:105780007047830804489B001B181868904308431F
:105790001860704700ED00E000E400E0BFF34F8FB9
:1057A00004490348C860BFF34F8F00BFFDE7000006
:1057B0000400FA0500ED00E0BFF34F8F04490348F1
:1057C000C860BFF34F8F00BFFDE700000400FA057B
:1057D00000ED00E0BFF34F8F04490348C860BFF3FA
:1057E0004F8F00BFFDE700000400FA0500ED00E068
:1057F0007047000010B50248FEF7E8FB10BD00003E
:105800004C01002001090A2200075143000F4018F3
:10581000C0B270470022014602E00A39C9B2521CE8
:105820000A29FAD21007000E0843704770B50446E3
:105830000068C168490613D40021C943C160FCF760
:1058400013FE7D260546F60006E0FCF70DFE401B24
:10585000B04201D9032070BD2068C0684006F4D56D
:10586000002070BD10B50248FDF738FE10BD0000E5
:10587000DC02002030B587B014216846FAF7BBFC83
:105880001348C16A01221143C162C06A0525104054
:10589000059004200090032000242D070190694604
:1058A00002942846FCF712FD082000900948019058
:1058B000694602942846FCF709FD002201210620D2
:1058C000FDF790F90620FDF783F907B030BD000021
:1058D0000010024000002110704710B5FDF738F9A4
:1058E00010BD000010B59CB038216846FAF783FC63
:1058F000142117A8FAF77FFC24210EA8FAF77BFCE5
:10590000234801680324E402A143C21489180160FA
:10591000FDF77CF91F480169A14301610E20009049
:10592000FF200130029001211020049005910220F7
:105930000A9040040C900391000100240D900B94F8
:105940006846FDF75DFB002801D0FBF7ADFE0F2098
:1059500017900320189019941A9401211B9417A8EA
:10596000FDF73CFA002801D0FBF79EFE2E20139491
:105970000E90012000040F90119412940EA8FDF7D0
:1059800067F9002801D0FBF78FFE1CB010BD0000A6
:105990000070004040100240104801688215114319
:1059A0000160C1680E4A1140C16001680D4A114092
:1059B0000160816849084900816001680122920400
:1059C00091430160C168FD2212049143C16000212E
:1059D00001610549C0038860704700000010024063
:1059E0000C40FF88F6FFF6FE00ED00E010B502481F
:1059F000FEF799F910BD00003C03002010B50248E5
:105A0000FEF791F910BD000078030020F0B50268A0
:105A10000124A407144D154E154FA04205D0A842ED
:105A200003D0B04201D0B84204D113467022934350
:105A30004A681A43A04205D0A84203D0B04201D020
:105A4000B84204D103231B029A43CB681A43802334
:105A50009A430B691A4302608A68C26209688162CC
:105A600001214161F0BD0000000400400008014038
:105A70000014014030B58468FF252D021B0213433A
:105A8000AC430B432343836030BD826870239A4349
:105A90000A4307210A438260704730B5036A046AEB
:105AA0006408640004628469F025AC431201224357
:105AB0000A24A3430B438261036230BD30B5036AFD
:105AC0001024A34303628469036A0F252D03120384
:105AD000AC432243A024A34309011943826101621C
